{
  "_format": "hh-sol-artifact-1",
  "contractName": "NFTforOpenSeaUUPS",
  "sourceName": "contracts/nftMarketUpgradable.sol",
  "abi": [
    {
      "inputs": [],
      "stateMutability": "nonpayable",
      "type": "constructor"
    },
    {
      "inputs": [
        {
          "internalType": "address",
          "name": "target",
          "type": "address"
        }
      ],
      "name": "AddressEmptyCode",
      "type": "error"
    },
    {
      "inputs": [
        {
          "internalType": "address",
          "name": "implementation",
          "type": "address"
        }
      ],
      "name": "ERC1967InvalidImplementation",
      "type": "error"
    },
    {
      "inputs": [],
      "name": "ERC1967NonPayable",
      "type": "error"
    },
    {
      "inputs": [
        {
          "internalType": "address",
          "name": "sender",
          "type": "address"
        },
        {
          "internalType": "uint256",
          "name": "tokenId",
          "type": "uint256"
        },
        {
          "internalType": "address",
          "name": "owner",
          "type": "address"
        }
      ],
      "name": "ERC721IncorrectOwner",
      "type": "error"
    },
    {
      "inputs": [
        {
          "internalType": "address",
          "name": "operator",
          "type": "address"
        },
        {
          "internalType": "uint256",
          "name": "tokenId",
          "type": "uint256"
        }
      ],
      "name": "ERC721InsufficientApproval",
      "type": "error"
    },
    {
      "inputs": [
        {
          "internalType": "address",
          "name": "approver",
          "type": "address"
        }
      ],
      "name": "ERC721InvalidApprover",
      "type": "error"
    },
    {
      "inputs": [
        {
          "internalType": "address",
          "name": "operator",
          "type": "address"
        }
      ],
      "name": "ERC721InvalidOperator",
      "type": "error"
    },
    {
      "inputs": [
        {
          "internalType": "address",
          "name": "owner",
          "type": "address"
        }
      ],
      "name": "ERC721InvalidOwner",
      "type": "error"
    },
    {
      "inputs": [
        {
          "internalType": "address",
          "name": "receiver",
          "type": "address"
        }
      ],
      "name": "ERC721InvalidReceiver",
      "type": "error"
    },
    {
      "inputs": [
        {
          "internalType": "address",
          "name": "sender",
          "type": "address"
        }
      ],
      "name": "ERC721InvalidSender",
      "type": "error"
    },
    {
      "inputs": [
        {
          "internalType": "uint256",
          "name": "tokenId",
          "type": "uint256"
        }
      ],
      "name": "ERC721NonexistentToken",
      "type": "error"
    },
    {
      "inputs": [],
      "name": "FailedCall",
      "type": "error"
    },
    {
      "inputs": [],
      "name": "InvalidInitialization",
      "type": "error"
    },
    {
      "inputs": [],
      "name": "NotInitializing",
      "type": "error"
    },
    {
      "inputs": [
        {
          "internalType": "address",
          "name": "owner",
          "type": "address"
        }
      ],
      "name": "OwnableInvalidOwner",
      "type": "error"
    },
    {
      "inputs": [
        {
          "internalType": "address",
          "name": "account",
          "type": "address"
        }
      ],
      "name": "OwnableUnauthorizedAccount",
      "type": "error"
    },
    {
      "inputs": [],
      "name": "UUPSUnauthorizedCallContext",
      "type": "error"
    },
    {
      "inputs": [
        {
          "internalType": "bytes32",
          "name": "slot",
          "type": "bytes32"
        }
      ],
      "name": "UUPSUnsupportedProxiableUUID",
      "type": "error"
    },
    {
      "anonymous": false,
      "inputs": [
        {
          "indexed": true,
          "internalType": "address",
          "name": "owner",
          "type": "address"
        },
        {
          "indexed": true,
          "internalType": "address",
          "name": "approved",
          "type": "address"
        },
        {
          "indexed": true,
          "internalType": "uint256",
          "name": "tokenId",
          "type": "uint256"
        }
      ],
      "name": "Approval",
      "type": "event"
    },
    {
      "anonymous": false,
      "inputs": [
        {
          "indexed": true,
          "internalType": "address",
          "name": "owner",
          "type": "address"
        },
        {
          "indexed": true,
          "internalType": "address",
          "name": "operator",
          "type": "address"
        },
        {
          "indexed": false,
          "internalType": "bool",
          "name": "approved",
          "type": "bool"
        }
      ],
      "name": "ApprovalForAll",
      "type": "event"
    },
    {
      "anonymous": false,
      "inputs": [
        {
          "indexed": false,
          "internalType": "uint64",
          "name": "version",
          "type": "uint64"
        }
      ],
      "name": "Initialized",
      "type": "event"
    },
    {
      "anonymous": false,
      "inputs": [
        {
          "indexed": true,
          "internalType": "address",
          "name": "buyer",
          "type": "address"
        },
        {
          "indexed": true,
          "internalType": "uint256",
          "name": "tokenId",
          "type": "uint256"
        },
        {
          "indexed": false,
          "internalType": "uint256",
          "name": "price",
          "type": "uint256"
        }
      ],
      "name": "NFTPurchased",
      "type": "event"
    },
    {
      "anonymous": false,
      "inputs": [
        {
          "indexed": true,
          "internalType": "address",
          "name": "seller",
          "type": "address"
        },
        {
          "indexed": true,
          "internalType": "uint256",
          "name": "tokenId",
          "type": "uint256"
        },
        {
          "indexed": false,
          "internalType": "uint256",
          "name": "price",
          "type": "uint256"
        }
      ],
      "name": "NFTforSale",
      "type": "event"
    },
    {
      "anonymous": false,
      "inputs": [
        {
          "indexed": true,
          "internalType": "address",
          "name": "previousOwner",
          "type": "address"
        },
        {
          "indexed": true,
          "internalType": "address",
          "name": "newOwner",
          "type": "address"
        }
      ],
      "name": "OwnershipTransferred",
      "type": "event"
    },
    {
      "anonymous": false,
      "inputs": [
        {
          "indexed": true,
          "internalType": "address",
          "name": "from",
          "type": "address"
        },
        {
          "indexed": true,
          "internalType": "address",
          "name": "to",
          "type": "address"
        },
        {
          "indexed": true,
          "internalType": "uint256",
          "name": "tokenId",
          "type": "uint256"
        }
      ],
      "name": "Transfer",
      "type": "event"
    },
    {
      "anonymous": false,
      "inputs": [
        {
          "indexed": true,
          "internalType": "address",
          "name": "implementation",
          "type": "address"
        }
      ],
      "name": "Upgraded",
      "type": "event"
    },
    {
      "anonymous": false,
      "inputs": [
        {
          "indexed": true,
          "internalType": "address",
          "name": "owner",
          "type": "address"
        },
        {
          "indexed": true,
          "internalType": "uint256",
          "name": "tokenId",
          "type": "uint256"
        }
      ],
      "name": "newNFTMinted",
      "type": "event"
    },
    {
      "inputs": [],
      "name": "UPGRADE_INTERFACE_VERSION",
      "outputs": [
        {
          "internalType": "string",
          "name": "",
          "type": "string"
        }
      ],
      "stateMutability": "view",
      "type": "function"
    },
    {
      "inputs": [
        {
          "internalType": "address",
          "name": "to",
          "type": "address"
        },
        {
          "internalType": "uint256",
          "name": "tokenId",
          "type": "uint256"
        }
      ],
      "name": "approve",
      "outputs": [],
      "stateMutability": "nonpayable",
      "type": "function"
    },
    {
      "inputs": [
        {
          "internalType": "address",
          "name": "owner",
          "type": "address"
        }
      ],
      "name": "balanceOf",
      "outputs": [
        {
          "internalType": "uint256",
          "name": "",
          "type": "uint256"
        }
      ],
      "stateMutability": "view",
      "type": "function"
    },
    {
      "inputs": [
        {
          "internalType": "uint256",
          "name": "tokenId",
          "type": "uint256"
        }
      ],
      "name": "buyNFT",
      "outputs": [],
      "stateMutability": "payable",
      "type": "function"
    },
    {
      "inputs": [
        {
          "internalType": "uint256",
          "name": "tokenId",
          "type": "uint256"
        }
      ],
      "name": "delistNFT",
      "outputs": [],
      "stateMutability": "nonpayable",
      "type": "function"
    },
    {
      "inputs": [
        {
          "internalType": "uint256",
          "name": "tokenId",
          "type": "uint256"
        }
      ],
      "name": "getApproved",
      "outputs": [
        {
          "internalType": "address",
          "name": "",
          "type": "address"
        }
      ],
      "stateMutability": "view",
      "type": "function"
    },
    {
      "inputs": [
        {
          "internalType": "uint256",
          "name": "tokenId",
          "type": "uint256"
        }
      ],
      "name": "getSaleDetails",
      "outputs": [
        {
          "components": [
            {
              "internalType": "address",
              "name": "seller",
              "type": "address"
            },
            {
              "internalType": "uint256",
              "name": "price",
              "type": "uint256"
            },
            {
              "internalType": "bool",
              "name": "isForSale",
              "type": "bool"
            }
          ],
          "internalType": "struct NFTforOpenSeaUUPS.Sale",
          "name": "",
          "type": "tuple"
        }
      ],
      "stateMutability": "view",
      "type": "function"
    },
    {
      "inputs": [],
      "name": "initialize",
      "outputs": [],
      "stateMutability": "nonpayable",
      "type": "function"
    },
    {
      "inputs": [
        {
          "internalType": "address",
          "name": "owner",
          "type": "address"
        },
        {
          "internalType": "address",
          "name": "operator",
          "type": "address"
        }
      ],
      "name": "isApprovedForAll",
      "outputs": [
        {
          "internalType": "bool",
          "name": "",
          "type": "bool"
        }
      ],
      "stateMutability": "view",
      "type": "function"
    },
    {
      "inputs": [
        {
          "internalType": "uint256",
          "name": "tokenId",
          "type": "uint256"
        },
        {
          "internalType": "uint256",
          "name": "price",
          "type": "uint256"
        }
      ],
      "name": "listNFT",
      "outputs": [],
      "stateMutability": "nonpayable",
      "type": "function"
    },
    {
      "inputs": [],
      "name": "mintNewNFT",
      "outputs": [],
      "stateMutability": "nonpayable",
      "type": "function"
    },
    {
      "inputs": [],
      "name": "name",
      "outputs": [
        {
          "internalType": "string",
          "name": "",
          "type": "string"
        }
      ],
      "stateMutability": "view",
      "type": "function"
    },
    {
      "inputs": [],
      "name": "nextTokenId",
      "outputs": [
        {
          "internalType": "uint256",
          "name": "",
          "type": "uint256"
        }
      ],
      "stateMutability": "view",
      "type": "function"
    },
    {
      "inputs": [
        {
          "internalType": "uint256",
          "name": "",
          "type": "uint256"
        }
      ],
      "name": "nftSales",
      "outputs": [
        {
          "internalType": "address",
          "name": "seller",
          "type": "address"
        },
        {
          "internalType": "uint256",
          "name": "price",
          "type": "uint256"
        },
        {
          "internalType": "bool",
          "name": "isForSale",
          "type": "bool"
        }
      ],
      "stateMutability": "view",
      "type": "function"
    },
    {
      "inputs": [],
      "name": "owner",
      "outputs": [
        {
          "internalType": "address",
          "name": "",
          "type": "address"
        }
      ],
      "stateMutability": "view",
      "type": "function"
    },
    {
      "inputs": [
        {
          "internalType": "uint256",
          "name": "tokenId",
          "type": "uint256"
        }
      ],
      "name": "ownerOf",
      "outputs": [
        {
          "internalType": "address",
          "name": "",
          "type": "address"
        }
      ],
      "stateMutability": "view",
      "type": "function"
    },
    {
      "inputs": [],
      "name": "proxiableUUID",
      "outputs": [
        {
          "internalType": "bytes32",
          "name": "",
          "type": "bytes32"
        }
      ],
      "stateMutability": "view",
      "type": "function"
    },
    {
      "inputs": [],
      "name": "renounceOwnership",
      "outputs": [],
      "stateMutability": "nonpayable",
      "type": "function"
    },
    {
      "inputs": [
        {
          "internalType": "address",
          "name": "from",
          "type": "address"
        },
        {
          "internalType": "address",
          "name": "to",
          "type": "address"
        },
        {
          "internalType": "uint256",
          "name": "tokenId",
          "type": "uint256"
        }
      ],
      "name": "safeTransferFrom",
      "outputs": [],
      "stateMutability": "nonpayable",
      "type": "function"
    },
    {
      "inputs": [
        {
          "internalType": "address",
          "name": "from",
          "type": "address"
        },
        {
          "internalType": "address",
          "name": "to",
          "type": "address"
        },
        {
          "internalType": "uint256",
          "name": "tokenId",
          "type": "uint256"
        },
        {
          "internalType": "bytes",
          "name": "data",
          "type": "bytes"
        }
      ],
      "name": "safeTransferFrom",
      "outputs": [],
      "stateMutability": "nonpayable",
      "type": "function"
    },
    {
      "inputs": [
        {
          "internalType": "address",
          "name": "operator",
          "type": "address"
        },
        {
          "internalType": "bool",
          "name": "approved",
          "type": "bool"
        }
      ],
      "name": "setApprovalForAll",
      "outputs": [],
      "stateMutability": "nonpayable",
      "type": "function"
    },
    {
      "inputs": [
        {
          "internalType": "bytes4",
          "name": "interfaceId",
          "type": "bytes4"
        }
      ],
      "name": "supportsInterface",
      "outputs": [
        {
          "internalType": "bool",
          "name": "",
          "type": "bool"
        }
      ],
      "stateMutability": "view",
      "type": "function"
    },
    {
      "inputs": [],
      "name": "symbol",
      "outputs": [
        {
          "internalType": "string",
          "name": "",
          "type": "string"
        }
      ],
      "stateMutability": "view",
      "type": "function"
    },
    {
      "inputs": [
        {
          "internalType": "uint256",
          "name": "tokenId",
          "type": "uint256"
        }
      ],
      "name": "tokenURI",
      "outputs": [
        {
          "internalType": "string",
          "name": "",
          "type": "string"
        }
      ],
      "stateMutability": "view",
      "type": "function"
    },
    {
      "inputs": [
        {
          "internalType": "address",
          "name": "from",
          "type": "address"
        },
        {
          "internalType": "address",
          "name": "to",
          "type": "address"
        },
        {
          "internalType": "uint256",
          "name": "tokenId",
          "type": "uint256"
        }
      ],
      "name": "transferFrom",
      "outputs": [],
      "stateMutability": "nonpayable",
      "type": "function"
    },
    {
      "inputs": [
        {
          "internalType": "address",
          "name": "newOwner",
          "type": "address"
        }
      ],
      "name": "transferOwnership",
      "outputs": [],
      "stateMutability": "nonpayable",
      "type": "function"
    },
    {
      "inputs": [
        {
          "internalType": "address",
          "name": "newImplementation",
          "type": "address"
        },
        {
          "internalType": "bytes",
          "name": "data",
          "type": "bytes"
        }
      ],
      "name": "upgradeToAndCall",
      "outputs": [],
      "stateMutability": "payable",
      "type": "function"
    },
    {
      "stateMutability": "payable",
      "type": "receive"
    }
  ],
  "bytecode": "0x60a06040523073ffffffffffffffffffffffffffffffffffffffff1660809073ffffffffffffffffffffffffffffffffffffffff168152503480156200004457600080fd5b50620000556200005b60201b60201c565b620001cf565b60006200006d6200016560201b60201c565b90508060000160089054906101000a900460ff1615620000b9576040517ff92ee8a900000000000000000000000000000000000000000000000000000000815260040160405180910390fd5b67ffffffffffffffff80168160000160009054906101000a900467ffffffffffffffff1667ffffffffffffffff1614620001625767ffffffffffffffff8160000160006101000a81548167ffffffffffffffff021916908367ffffffffffffffff1602179055507fc7f505b2f371ae2175ee4913f4499e1f2633a7b5936321eed1cdaeb6115181d267ffffffffffffffff604051620001599190620001b2565b60405180910390a15b50565b60007ff0c57e16840df040f15088dc2f81fe391c3923bec73e23a9662efc9c229c6a00905090565b600067ffffffffffffffff82169050919050565b620001ac816200018d565b82525050565b6000602082019050620001c96000830184620001a1565b92915050565b6080516140de620001f960003960008181611a9901528181611aee0152611e1601526140de6000f3fe6080604052600436106101a05760003560e01c8063715018a6116100ec578063a22cb4651161008a578063c87b56dd11610064578063c87b56dd14610594578063cb917b9c146105d1578063e985e9c5146105fa578063f2fde38b14610637576101aa565b8063a22cb46514610517578063ad3cb1cc14610540578063b88d4fde1461056b576101aa565b80638c746d8b116100c65780638c746d8b1461045b5780638da5cb5b1461049857806394383f14146104c357806395d89b41146104ec576101aa565b8063715018a61461040257806375794a3c146104195780638129fc1c14610444576101aa565b806342842e0e1161015957806351ed82881161013357806351ed82881461034157806352d1902d1461035d5780636352211e1461038857806370a08231146103c5576101aa565b806342842e0e146102bd57806344432bfc146102e65780634f1ef28614610325576101aa565b806301ffc9a7146101af57806306fdde03146101ec578063081812fc14610217578063095ea7b31461025457806323b872dd1461027d5780634111b9f8146102a6576101aa565b366101aa57600080fd5b600080fd5b3480156101bb57600080fd5b506101d660048036038101906101d19190612fac565b610660565b6040516101e39190612ff4565b60405180910390f35b3480156101f857600080fd5b50610201610742565b60405161020e919061309f565b60405180910390f35b34801561022357600080fd5b5061023e600480360381019061023991906130f7565b6107e3565b60405161024b9190613165565b60405180910390f35b34801561026057600080fd5b5061027b600480360381019061027691906131ac565b6107ff565b005b34801561028957600080fd5b506102a4600480360381019061029f91906131ec565b610815565b005b3480156102b257600080fd5b506102bb610917565b005b3480156102c957600080fd5b506102e460048036038101906102df91906131ec565b610987565b005b3480156102f257600080fd5b5061030d600480360381019061030891906130f7565b6109a7565b60405161031c9392919061324e565b60405180910390f35b61033f600480360381019061033a91906133ba565b6109fe565b005b61035b600480360381019061035691906130f7565b610a1d565b005b34801561036957600080fd5b50610372610cb4565b60405161037f919061342f565b60405180910390f35b34801561039457600080fd5b506103af60048036038101906103aa91906130f7565b610ce7565b6040516103bc9190613165565b60405180910390f35b3480156103d157600080fd5b506103ec60048036038101906103e7919061344a565b610cf9565b6040516103f99190613477565b60405180910390f35b34801561040e57600080fd5b50610417610dc2565b005b34801561042557600080fd5b5061042e610dd6565b60405161043b9190613477565b60405180910390f35b34801561045057600080fd5b50610459610ddc565b005b34801561046757600080fd5b50610482600480360381019061047d91906130f7565b610fe6565b60405161048f9190613501565b60405180910390f35b3480156104a457600080fd5b506104ad61108d565b6040516104ba9190613165565b60405180910390f35b3480156104cf57600080fd5b506104ea60048036038101906104e5919061351c565b6110c5565b005b3480156104f857600080fd5b506105016112f4565b60405161050e919061309f565b60405180910390f35b34801561052357600080fd5b5061053e60048036038101906105399190613588565b611395565b005b34801561054c57600080fd5b506105556113ab565b604051610562919061309f565b60405180910390f35b34801561057757600080fd5b50610592600480360381019061058d91906135c8565b6113e4565b005b3480156105a057600080fd5b506105bb60048036038101906105b691906130f7565b611409565b6040516105c8919061309f565b60405180910390f35b3480156105dd57600080fd5b506105f860048036038101906105f391906130f7565b611472565b005b34801561060657600080fd5b50610621600480360381019061061c919061364b565b6115a5565b60405161062e9190612ff4565b60405180910390f35b34801561064357600080fd5b5061065e6004803603810190610659919061344a565b611647565b005b60007f80ac58cd000000000000000000000000000000000000000000000000000000007bffffffffffffffffffffffffffffffffffffffffffffffffffffffff1916827bffffffffffffffffffffffffffffffffffffffffffffffffffffffff1916148061072b57507f5b5e139f000000000000000000000000000000000000000000000000000000007bffffffffffffffffffffffffffffffffffffffffffffffffffffffff1916827bffffffffffffffffffffffffffffffffffffffffffffffffffffffff1916145b8061073b575061073a826116cd565b5b9050919050565b6060600061074e611737565b905080600001805461075f906136ba565b80601f016020809104026020016040519081016040528092919081815260200182805461078b906136ba565b80156107d85780601f106107ad576101008083540402835291602001916107d8565b820191906000526020600020905b8154815290600101906020018083116107bb57829003601f168201915b505050505091505090565b60006107ee8261175f565b506107f8826117e7565b9050919050565b610811828261080c611832565b61183a565b5050565b600073ffffffffffffffffffffffffffffffffffffffff168273ffffffffffffffffffffffffffffffffffffffff16036108875760006040517f64a0ae9200000000000000000000000000000000000000000000000000000000815260040161087e9190613165565b60405180910390fd5b600061089b8383610896611832565b61184c565b90508373ffffffffffffffffffffffffffffffffffffffff168173ffffffffffffffffffffffffffffffffffffffff1614610911578382826040517f64283d7b000000000000000000000000000000000000000000000000000000008152600401610908939291906136eb565b60405180910390fd5b50505050565b600060015490506001600081548092919061093190613751565b91905055506109403382611a79565b803373ffffffffffffffffffffffffffffffffffffffff167f37218005c76b3ebd76b8d48bb5c97106dcf4775fbc527bb5a22fe900d5797c7160405160405180910390a350565b6109a2838383604051806020016040528060008152506113e4565b505050565b60006020528060005260406000206000915090508060000160009054906101000a900473ffffffffffffffffffffffffffffffffffffffff16908060010154908060020160009054906101000a900460ff16905083565b610a06611a97565b610a0f82611b7d565b610a198282611b88565b5050565b60008060008381526020019081526020016000206040518060600160405290816000820160009054906101000a900473ffffffffffffffffffffffffffffffffffffffff1673ffffffffffffffffffffffffffffffffffffffff1673ffffffffffffffffffffffffffffffffffffffff168152602001600182015481526020016002820160009054906101000a900460ff16151515158152505090508060400151610afd576040517f08c379a0000000000000000000000000000000000000000000000000000000008152600401610af4906137e5565b60405180910390fd5b80602001513414610b43576040517f08c379a0000000000000000000000000000000000000000000000000000000008152600401610b3a90613851565b60405180910390fd5b600081600001519050600080848152602001908152602001600020600080820160006101000a81549073ffffffffffffffffffffffffffffffffffffffff021916905560018201600090556002820160006101000a81549060ff0219169055505060008173ffffffffffffffffffffffffffffffffffffffff1634604051610bca906138a2565b60006040518083038185875af1925050503d8060008114610c07576040519150601f19603f3d011682016040523d82523d6000602084013e610c0c565b606091505b5050905080610c50576040517f08c379a0000000000000000000000000000000000000000000000000000000008152600401610c4790613903565b60405180910390fd5b610c5b823386611ca7565b833373ffffffffffffffffffffffffffffffffffffffff167fa6d32bfcc7cd31e4d5ee7adeef7edd500cab0e64b4a494de4f832d41fd70f56d8560200151604051610ca69190613477565b60405180910390a350505050565b6000610cbe611e14565b7f360894a13ba1a3210667c828492db98dca3e2076cc3735a920a3ca505d382bbc60001b905090565b6000610cf28261175f565b9050919050565b600080610d04611737565b9050600073ffffffffffffffffffffffffffffffffffffffff168373ffffffffffffffffffffffffffffffffffffffff1603610d785760006040517f89c62b64000000000000000000000000000000000000000000000000000000008152600401610d6f9190613165565b60405180910390fd5b8060030160008473ffffffffffffffffffffffffffffffffffffffff1673ffffffffffffffffffffffffffffffffffffffff16815260200190815260200160002054915050919050565b610dca611e9b565b610dd46000611f22565b565b60015481565b6000610de6611ff9565b905060008160000160089054906101000a900460ff1615905060008260000160009054906101000a900467ffffffffffffffff1690506000808267ffffffffffffffff16148015610e345750825b9050600060018367ffffffffffffffff16148015610e69575060003073ffffffffffffffffffffffffffffffffffffffff163b145b905081158015610e77575080155b15610eae576040517ff92ee8a900000000000000000000000000000000000000000000000000000000815260040160405180910390fd5b60018560000160006101000a81548167ffffffffffffffff021916908367ffffffffffffffff1602179055508315610efe5760018560000160086101000a81548160ff0219169083151502179055505b610f726040518060400160405280600d81526020017f4e465455706772616461626c65000000000000000000000000000000000000008152506040518060400160405280600481526020017f4e534e5500000000000000000000000000000000000000000000000000000000815250612021565b610f7b33612037565b610f8361204b565b8315610fdf5760008560000160086101000a81548160ff0219169083151502179055507fc7f505b2f371ae2175ee4913f4499e1f2633a7b5936321eed1cdaeb6115181d26001604051610fd6919061397c565b60405180910390a15b5050505050565b610fee612f07565b6000808381526020019081526020016000206040518060600160405290816000820160009054906101000a900473ffffffffffffffffffffffffffffffffffffffff1673ffffffffffffffffffffffffffffffffffffffff1673ffffffffffffffffffffffffffffffffffffffff168152602001600182015481526020016002820160009054906101000a900460ff1615151515815250509050919050565b600080611098612055565b90508060000160009054906101000a900473ffffffffffffffffffffffffffffffffffffffff1691505090565b6000151560008084815260200190815260200160002060020160009054906101000a900460ff1615151461112e576040517f08c379a000000000000000000000000000000000000000000000000000000000815260040161112590613a09565b60405180910390fd5b3373ffffffffffffffffffffffffffffffffffffffff1661114e83610ce7565b73ffffffffffffffffffffffffffffffffffffffff16146111a4576040517f08c379a000000000000000000000000000000000000000000000000000000000815260040161119b90613a9b565b60405180910390fd5b600081116111e7576040517f08c379a00000000000000000000000000000000000000000000000000000000081526004016111de90613b07565b60405180910390fd5b60405180606001604052803373ffffffffffffffffffffffffffffffffffffffff1681526020018281526020016001151581525060008084815260200190815260200160002060008201518160000160006101000a81548173ffffffffffffffffffffffffffffffffffffffff021916908373ffffffffffffffffffffffffffffffffffffffff1602179055506020820151816001015560408201518160020160006101000a81548160ff021916908315150217905550905050813373ffffffffffffffffffffffffffffffffffffffff167f0e762eff9b6c8d920641b0d4d2b2638d54c1eae6a37cdd0d1d95e6405666308c836040516112e89190613477565b60405180910390a35050565b60606000611300611737565b9050806001018054611311906136ba565b80601f016020809104026020016040519081016040528092919081815260200182805461133d906136ba565b801561138a5780601f1061135f5761010080835404028352916020019161138a565b820191906000526020600020905b81548152906001019060200180831161136d57829003601f168201915b505050505091505090565b6113a76113a0611832565b838361207d565b5050565b6040518060400160405280600581526020017f352e302e3000000000000000000000000000000000000000000000000000000081525081565b6113ef848484610815565b6114036113fa611832565b858585856121fb565b50505050565b60606114148261175f565b50600061141f6123ac565b9050600081511161143f576040518060200160405280600081525061146a565b80611449846123cc565b60405160200161145a929190613b63565b6040516020818303038152906040525b915050919050565b3373ffffffffffffffffffffffffffffffffffffffff1661149282610ce7565b73ffffffffffffffffffffffffffffffffffffffff16146114e8576040517f08c379a00000000000000000000000000000000000000000000000000000000081526004016114df90613a9b565b60405180910390fd5b60008082815260200190815260200160002060020160009054906101000a900460ff1661154a576040517f08c379a000000000000000000000000000000000000000000000000000000000815260040161154190613bd3565b60405180910390fd5b600080828152602001908152602001600020600080820160006101000a81549073ffffffffffffffffffffffffffffffffffffffff021916905560018201600090556002820160006101000a81549060ff0219169055505050565b6000806115b0611737565b90508060050160008573ffffffffffffffffffffffffffffffffffffffff1673ffffffffffffffffffffffffffffffffffffffff16815260200190815260200160002060008473ffffffffffffffffffffffffffffffffffffffff1673ffffffffffffffffffffffffffffffffffffffff16815260200190815260200160002060009054906101000a900460ff1691505092915050565b61164f611e9b565b600073ffffffffffffffffffffffffffffffffffffffff168173ffffffffffffffffffffffffffffffffffffffff16036116c15760006040517f1e4fbdf70000000000000000000000000000000000000000000000000000000081526004016116b89190613165565b60405180910390fd5b6116ca81611f22565b50565b60007f01ffc9a7000000000000000000000000000000000000000000000000000000007bffffffffffffffffffffffffffffffffffffffffffffffffffffffff1916827bffffffffffffffffffffffffffffffffffffffffffffffffffffffff1916149050919050565b60007f80bb2b638cc20bc4d0a60d66940f3ab4a00c1d7b313497ca82fb0b4ab0079300905090565b60008061176b8361249a565b9050600073ffffffffffffffffffffffffffffffffffffffff168173ffffffffffffffffffffffffffffffffffffffff16036117de57826040517f7e2732890000000000000000000000000000000000000000000000000000000081526004016117d59190613477565b60405180910390fd5b80915050919050565b6000806117f2611737565b905080600401600084815260200190815260200160002060009054906101000a900473ffffffffffffffffffffffffffffffffffffffff16915050919050565b600033905090565b61184783838360016124e5565b505050565b600080611857611737565b905060006118648561249a565b9050600073ffffffffffffffffffffffffffffffffffffffff168473ffffffffffffffffffffffffffffffffffffffff16146118a6576118a58185876126b9565b5b600073ffffffffffffffffffffffffffffffffffffffff168173ffffffffffffffffffffffffffffffffffffffff1614611939576118e86000866000806124e5565b60018260030160008373ffffffffffffffffffffffffffffffffffffffff1673ffffffffffffffffffffffffffffffffffffffff168152602001908152602001600020600082825403925050819055505b600073ffffffffffffffffffffffffffffffffffffffff168673ffffffffffffffffffffffffffffffffffffffff16146119be5760018260030160008873ffffffffffffffffffffffffffffffffffffffff1673ffffffffffffffffffffffffffffffffffffffff168152602001908152602001600020600082825401925050819055505b8582600201600087815260200190815260200160002060006101000a81548173ffffffffffffffffffffffffffffffffffffffff021916908373ffffffffffffffffffffffffffffffffffffffff160217905550848673ffffffffffffffffffffffffffffffffffffffff168273ffffffffffffffffffffffffffffffffffffffff167fddf252ad1be2c89b69c2b068fc378daa952ba7f163c4a11628f55a4df523b3ef60405160405180910390a480925050509392505050565b611a9382826040518060200160405280600081525061277d565b5050565b7f000000000000000000000000000000000000000000000000000000000000000073ffffffffffffffffffffffffffffffffffffffff163073ffffffffffffffffffffffffffffffffffffffff161480611b4457507f000000000000000000000000000000000000000000000000000000000000000073ffffffffffffffffffffffffffffffffffffffff16611b2b6127a1565b73ffffffffffffffffffffffffffffffffffffffff1614155b15611b7b576040517fe07c8dba00000000000000000000000000000000000000000000000000000000815260040160405180910390fd5b565b611b85611e9b565b50565b8173ffffffffffffffffffffffffffffffffffffffff166352d1902d6040518163ffffffff1660e01b8152600401602060405180830381865afa925050508015611bf057506040513d601f19601f82011682018060405250810190611bed9190613c1f565b60015b611c3157816040517f4c9c8ce3000000000000000000000000000000000000000000000000000000008152600401611c289190613165565b60405180910390fd5b7f360894a13ba1a3210667c828492db98dca3e2076cc3735a920a3ca505d382bbc60001b8114611c9857806040517faa1d49a4000000000000000000000000000000000000000000000000000000008152600401611c8f919061342f565b60405180910390fd5b611ca283836127f8565b505050565b600073ffffffffffffffffffffffffffffffffffffffff168273ffffffffffffffffffffffffffffffffffffffff1603611d195760006040517f64a0ae92000000000000000000000000000000000000000000000000000000008152600401611d109190613165565b60405180910390fd5b6000611d278383600061184c565b9050600073ffffffffffffffffffffffffffffffffffffffff168173ffffffffffffffffffffffffffffffffffffffff1603611d9a57816040517f7e273289000000000000000000000000000000000000000000000000000000008152600401611d919190613477565b60405180910390fd5b8373ffffffffffffffffffffffffffffffffffffffff168173ffffffffffffffffffffffffffffffffffffffff1614611e0e578382826040517f64283d7b000000000000000000000000000000000000000000000000000000008152600401611e05939291906136eb565b60405180910390fd5b50505050565b7f000000000000000000000000000000000000000000000000000000000000000073ffffffffffffffffffffffffffffffffffffffff163073ffffffffffffffffffffffffffffffffffffffff1614611e99576040517fe07c8dba00000000000000000000000000000000000000000000000000000000815260040160405180910390fd5b565b611ea3611832565b73ffffffffffffffffffffffffffffffffffffffff16611ec161108d565b73ffffffffffffffffffffffffffffffffffffffff1614611f2057611ee4611832565b6040517f118cdaa7000000000000000000000000000000000000000000000000000000008152600401611f179190613165565b60405180910390fd5b565b6000611f2c612055565b905060008160000160009054906101000a900473ffffffffffffffffffffffffffffffffffffffff169050828260000160006101000a81548173ffffffffffffffffffffffffffffffffffffffff021916908373ffffffffffffffffffffffffffffffffffffffff1602179055508273ffffffffffffffffffffffffffffffffffffffff168173ffffffffffffffffffffffffffffffffffffffff167f8be0079c531659141344cd1fd0a4f28419497f9722a3daafe3b4186f6b6457e060405160405180910390a3505050565b60007ff0c57e16840df040f15088dc2f81fe391c3923bec73e23a9662efc9c229c6a00905090565b61202961286b565b61203382826128ab565b5050565b61203f61286b565b612048816128e8565b50565b61205361286b565b565b60007f9016d09d72d40fdae2fd8ceac6b6234c7706214fd39c1cd1e609a0528c199300905090565b6000612087611737565b9050600073ffffffffffffffffffffffffffffffffffffffff168373ffffffffffffffffffffffffffffffffffffffff16036120fa57826040517f5b08ba180000000000000000000000000000000000000000000000000000000081526004016120f19190613165565b60405180910390fd5b818160050160008673ffffffffffffffffffffffffffffffffffffffff1673ffffffffffffffffffffffffffffffffffffffff16815260200190815260200160002060008573ffffffffffffffffffffffffffffffffffffffff1673ffffffffffffffffffffffffffffffffffffffff16815260200190815260200160002060006101000a81548160ff0219169083151502179055508273ffffffffffffffffffffffffffffffffffffffff168473ffffffffffffffffffffffffffffffffffffffff167f17307eab39ab6107e8899845ad3d59bd9653f200f220920489ca2b5937696c31846040516121ed9190612ff4565b60405180910390a350505050565b60008373ffffffffffffffffffffffffffffffffffffffff163b11156123a5578273ffffffffffffffffffffffffffffffffffffffff1663150b7a02868685856040518563ffffffff1660e01b815260040161225a9493929190613ca1565b6020604051808303816000875af192505050801561229657506040513d601f19601f820116820180604052508101906122939190613d02565b60015b61231a573d80600081146122c6576040519150601f19603f3d011682016040523d82523d6000602084013e6122cb565b606091505b50600081510361231257836040517f64a0ae920000000000000000000000000000000000000000000000000000000081526004016123099190613165565b60405180910390fd5b805181602001fd5b63150b7a0260e01b7bffffffffffffffffffffffffffffffffffffffffffffffffffffffff1916817bffffffffffffffffffffffffffffffffffffffffffffffffffffffff1916146123a357836040517f64a0ae9200000000000000000000000000000000000000000000000000000000815260040161239a9190613165565b60405180910390fd5b505b5050505050565b60606040518060a001604052806065815260200161404460659139905090565b6060600060016123db8461296e565b01905060008167ffffffffffffffff8111156123fa576123f961328f565b5b6040519080825280601f01601f19166020018201604052801561242c5781602001600182028036833780820191505090505b509050600082602001820190505b60011561248f578080600190039150507f3031323334353637383961626364656600000000000000000000000000000000600a86061a8153600a858161248357612482613d2f565b5b0494506000850361243a575b819350505050919050565b6000806124a5611737565b905080600201600084815260200190815260200160002060009054906101000a900473ffffffffffffffffffffffffffffffffffffffff16915050919050565b60006124ef611737565b9050818061252a5750600073ffffffffffffffffffffffffffffffffffffffff168373ffffffffffffffffffffffffffffffffffffffff1614155b1561265e57600061253a8561175f565b9050600073ffffffffffffffffffffffffffffffffffffffff168473ffffffffffffffffffffffffffffffffffffffff16141580156125a557508373ffffffffffffffffffffffffffffffffffffffff168173ffffffffffffffffffffffffffffffffffffffff1614155b80156125b857506125b681856115a5565b155b156125fa57836040517fa9fbf51f0000000000000000000000000000000000000000000000000000000081526004016125f19190613165565b60405180910390fd5b821561265c57848673ffffffffffffffffffffffffffffffffffffffff168273ffffffffffffffffffffffffffffffffffffffff167f8c5be1e5ebec7d5bd14f71427d1e84f3dd0314c0f7b2291e5b200ac8c7c3b92560405160405180910390a45b505b8481600401600086815260200190815260200160002060006101000a81548173ffffffffffffffffffffffffffffffffffffffff021916908373ffffffffffffffffffffffffffffffffffffffff1602179055505050505050565b6126c4838383612ac1565b61277857600073ffffffffffffffffffffffffffffffffffffffff168373ffffffffffffffffffffffffffffffffffffffff160361273957806040517f7e2732890000000000000000000000000000000000000000000000000000000081526004016127309190613477565b60405180910390fd5b81816040517f177e802f00000000000000000000000000000000000000000000000000000000815260040161276f929190613d5e565b60405180910390fd5b505050565b6127878383612b82565b61279c612792611832565b60008585856121fb565b505050565b60006127cf7f360894a13ba1a3210667c828492db98dca3e2076cc3735a920a3ca505d382bbc60001b612c7b565b60000160009054906101000a900473ffffffffffffffffffffffffffffffffffffffff16905090565b61280182612c85565b8173ffffffffffffffffffffffffffffffffffffffff167fbc7cd75a20ee27fd9adebab32041f755214dbc6bffa90cc0225b39da2e5c2d3b60405160405180910390a260008151111561285e576128588282612d52565b50612867565b612866612dd6565b5b5050565b612873612e13565b6128a9576040517fd7e6bcf800000000000000000000000000000000000000000000000000000000815260040160405180910390fd5b565b6128b361286b565b60006128bd611737565b9050828160000190816128d09190613f29565b50818160010190816128e29190613f29565b50505050565b6128f061286b565b600073ffffffffffffffffffffffffffffffffffffffff168173ffffffffffffffffffffffffffffffffffffffff16036129625760006040517f1e4fbdf70000000000000000000000000000000000000000000000000000000081526004016129599190613165565b60405180910390fd5b61296b81611f22565b50565b600080600090507a184f03e93ff9f4daa797ed6e38ed64bf6a1f01000000000000000083106129cc577a184f03e93ff9f4daa797ed6e38ed64bf6a1f01000000000000000083816129c2576129c1613d2f565b5b0492506040810190505b6d04ee2d6d415b85acef81000000008310612a09576d04ee2d6d415b85acef810000000083816129ff576129fe613d2f565b5b0492506020810190505b662386f26fc100008310612a3857662386f26fc100008381612a2e57612a2d613d2f565b5b0492506010810190505b6305f5e1008310612a61576305f5e1008381612a5757612a56613d2f565b5b0492506008810190505b6127108310612a86576127108381612a7c57612a7b613d2f565b5b0492506004810190505b60648310612aa95760648381612a9f57612a9e613d2f565b5b0492506002810190505b600a8310612ab8576001810190505b80915050919050565b60008073ffffffffffffffffffffffffffffffffffffffff168373ffffffffffffffffffffffffffffffffffffffff1614158015612b7957508273ffffffffffffffffffffffffffffffffffffffff168473ffffffffffffffffffffffffffffffffffffffff161480612b3a5750612b3984846115a5565b5b80612b7857508273ffffffffffffffffffffffffffffffffffffffff16612b60836117e7565b73ffffffffffffffffffffffffffffffffffffffff16145b5b90509392505050565b600073ffffffffffffffffffffffffffffffffffffffff168273ffffffffffffffffffffffffffffffffffffffff1603612bf45760006040517f64a0ae92000000000000000000000000000000000000000000000000000000008152600401612beb9190613165565b60405180910390fd5b6000612c028383600061184c565b9050600073ffffffffffffffffffffffffffffffffffffffff168173ffffffffffffffffffffffffffffffffffffffff1614612c765760006040517f73c6ac6e000000000000000000000000000000000000000000000000000000008152600401612c6d9190613165565b60405180910390fd5b505050565b6000819050919050565b60008173ffffffffffffffffffffffffffffffffffffffff163b03612ce157806040517f4c9c8ce3000000000000000000000000000000000000000000000000000000008152600401612cd89190613165565b60405180910390fd5b80612d0e7f360894a13ba1a3210667c828492db98dca3e2076cc3735a920a3ca505d382bbc60001b612c7b565b60000160006101000a81548173ffffffffffffffffffffffffffffffffffffffff021916908373ffffffffffffffffffffffffffffffffffffffff16021790555050565b60606000808473ffffffffffffffffffffffffffffffffffffffff1684604051612d7c919061402c565b600060405180830381855af49150503d8060008114612db7576040519150601f19603f3d011682016040523d82523d6000602084013e612dbc565b606091505b5091509150612dcc858383612e33565b9250505092915050565b6000341115612e11576040517fb398979f00000000000000000000000000000000000000000000000000000000815260040160405180910390fd5b565b6000612e1d611ff9565b60000160089054906101000a900460ff16905090565b606082612e4857612e4382612ec2565b612eba565b60008251148015612e70575060008473ffffffffffffffffffffffffffffffffffffffff163b145b15612eb257836040517f9996b315000000000000000000000000000000000000000000000000000000008152600401612ea99190613165565b60405180910390fd5b819050612ebb565b5b9392505050565b600081511115612ed55780518082602001fd5b6040517fd6bda27500000000000000000000000000000000000000000000000000000000815260040160405180910390fd5b6040518060600160405280600073ffffffffffffffffffffffffffffffffffffffff168152602001600081526020016000151581525090565b6000604051905090565b600080fd5b600080fd5b60007fffffffff0000000000000000000000000000000000000000000000000000000082169050919050565b612f8981612f54565b8114612f9457600080fd5b50565b600081359050612fa681612f80565b92915050565b600060208284031215612fc257612fc1612f4a565b5b6000612fd084828501612f97565b91505092915050565b60008115159050919050565b612fee81612fd9565b82525050565b60006020820190506130096000830184612fe5565b92915050565b600081519050919050565b600082825260208201905092915050565b60005b8381101561304957808201518184015260208101905061302e565b60008484015250505050565b6000601f19601f8301169050919050565b60006130718261300f565b61307b818561301a565b935061308b81856020860161302b565b61309481613055565b840191505092915050565b600060208201905081810360008301526130b98184613066565b905092915050565b6000819050919050565b6130d4816130c1565b81146130df57600080fd5b50565b6000813590506130f1816130cb565b92915050565b60006020828403121561310d5761310c612f4a565b5b600061311b848285016130e2565b91505092915050565b600073ffffffffffffffffffffffffffffffffffffffff82169050919050565b600061314f82613124565b9050919050565b61315f81613144565b82525050565b600060208201905061317a6000830184613156565b92915050565b61318981613144565b811461319457600080fd5b50565b6000813590506131a681613180565b92915050565b600080604083850312156131c3576131c2612f4a565b5b60006131d185828601613197565b92505060206131e2858286016130e2565b9150509250929050565b60008060006060848603121561320557613204612f4a565b5b600061321386828701613197565b935050602061322486828701613197565b9250506040613235868287016130e2565b9150509250925092565b613248816130c1565b82525050565b60006060820190506132636000830186613156565b613270602083018561323f565b61327d6040830184612fe5565b949350505050565b600080fd5b600080fd5b7f4e487b7100000000000000000000000000000000000000000000000000000000600052604160045260246000fd5b6132c782613055565b810181811067ffffffffffffffff821117156132e6576132e561328f565b5b80604052505050565b60006132f9612f40565b905061330582826132be565b919050565b600067ffffffffffffffff8211156133255761332461328f565b5b61332e82613055565b9050602081019050919050565b82818337600083830152505050565b600061335d6133588461330a565b6132ef565b9050828152602081018484840111156133795761337861328a565b5b61338484828561333b565b509392505050565b600082601f8301126133a1576133a0613285565b5b81356133b184826020860161334a565b91505092915050565b600080604083850312156133d1576133d0612f4a565b5b60006133df85828601613197565b925050602083013567ffffffffffffffff811115613400576133ff612f4f565b5b61340c8582860161338c565b9150509250929050565b6000819050919050565b61342981613416565b82525050565b60006020820190506134446000830184613420565b92915050565b6000602082840312156134605761345f612f4a565b5b600061346e84828501613197565b91505092915050565b600060208201905061348c600083018461323f565b92915050565b61349b81613144565b82525050565b6134aa816130c1565b82525050565b6134b981612fd9565b82525050565b6060820160008201516134d56000850182613492565b5060208201516134e860208501826134a1565b5060408201516134fb60408501826134b0565b50505050565b600060608201905061351660008301846134bf565b92915050565b6000806040838503121561353357613532612f4a565b5b6000613541858286016130e2565b9250506020613552858286016130e2565b9150509250929050565b61356581612fd9565b811461357057600080fd5b50565b6000813590506135828161355c565b92915050565b6000806040838503121561359f5761359e612f4a565b5b60006135ad85828601613197565b92505060206135be85828601613573565b9150509250929050565b600080600080608085870312156135e2576135e1612f4a565b5b60006135f087828801613197565b945050602061360187828801613197565b9350506040613612878288016130e2565b925050606085013567ffffffffffffffff81111561363357613632612f4f565b5b61363f8782880161338c565b91505092959194509250565b6000806040838503121561366257613661612f4a565b5b600061367085828601613197565b925050602061368185828601613197565b9150509250929050565b7f4e487b7100000000000000000000000000000000000000000000000000000000600052602260045260246000fd5b600060028204905060018216806136d257607f821691505b6020821081036136e5576136e461368b565b5b50919050565b60006060820190506137006000830186613156565b61370d602083018561323f565b61371a6040830184613156565b949350505050565b7f4e487b7100000000000000000000000000000000000000000000000000000000600052601160045260246000fd5b600061375c826130c1565b91507fffffffffffffffffffffffffffffffffffffffffffffffffffffffffffffffff820361378e5761378d613722565b5b600182019050919050565b7f54686973204e4654206973206e6f7420666f722073616c650000000000000000600082015250565b60006137cf60188361301a565b91506137da82613799565b602082019050919050565b600060208201905081810360008301526137fe816137c2565b9050919050565b7f496e636f72726563742076616c75652073656e74000000000000000000000000600082015250565b600061383b60148361301a565b915061384682613805565b602082019050919050565b6000602082019050818103600083015261386a8161382e565b9050919050565b600081905092915050565b50565b600061388c600083613871565b91506138978261387c565b600082019050919050565b60006138ad8261387f565b9150819050919050565b7f5472616e73666572206661696c65640000000000000000000000000000000000600082015250565b60006138ed600f8361301a565b91506138f8826138b7565b602082019050919050565b6000602082019050818103600083015261391c816138e0565b9050919050565b6000819050919050565b600067ffffffffffffffff82169050919050565b6000819050919050565b600061396661396161395c84613923565b613941565b61392d565b9050919050565b6139768161394b565b82525050565b6000602082019050613991600083018461396d565b92915050565b7f54686973204e465420697320616c7265616479206c697374656420666f72207360008201527f616c650000000000000000000000000000000000000000000000000000000000602082015250565b60006139f360238361301a565b91506139fe82613997565b604082019050919050565b60006020820190508181036000830152613a22816139e6565b9050919050565b7f596f7520617265206e6f7420746865206f776e6572206f662074686973204e4660008201527f5400000000000000000000000000000000000000000000000000000000000000602082015250565b6000613a8560218361301a565b9150613a9082613a29565b604082019050919050565b60006020820190508181036000830152613ab481613a78565b9050919050565b7f5072696365206d7573742062652067726561746572207468616e207a65726f00600082015250565b6000613af1601f8361301a565b9150613afc82613abb565b602082019050919050565b60006020820190508181036000830152613b2081613ae4565b9050919050565b600081905092915050565b6000613b3d8261300f565b613b478185613b27565b9350613b5781856020860161302b565b80840191505092915050565b6000613b6f8285613b32565b9150613b7b8284613b32565b91508190509392505050565b7f54686973204e4654206973206e6f74206c697374656420666f722073616c6500600082015250565b6000613bbd601f8361301a565b9150613bc882613b87565b602082019050919050565b60006020820190508181036000830152613bec81613bb0565b9050919050565b613bfc81613416565b8114613c0757600080fd5b50565b600081519050613c1981613bf3565b92915050565b600060208284031215613c3557613c34612f4a565b5b6000613c4384828501613c0a565b91505092915050565b600081519050919050565b600082825260208201905092915050565b6000613c7382613c4c565b613c7d8185613c57565b9350613c8d81856020860161302b565b613c9681613055565b840191505092915050565b6000608082019050613cb66000830187613156565b613cc36020830186613156565b613cd0604083018561323f565b8181036060830152613ce28184613c68565b905095945050505050565b600081519050613cfc81612f80565b92915050565b600060208284031215613d1857613d17612f4a565b5b6000613d2684828501613ced565b91505092915050565b7f4e487b7100000000000000000000000000000000000000000000000000000000600052601260045260246000fd5b6000604082019050613d736000830185613156565b613d80602083018461323f565b9392505050565b60008190508160005260206000209050919050565b60006020601f8301049050919050565b600082821b905092915050565b600060088302613de97fffffffffffffffffffffffffffffffffffffffffffffffffffffffffffffffff82613dac565b613df38683613dac565b95508019841693508086168417925050509392505050565b6000613e26613e21613e1c846130c1565b613941565b6130c1565b9050919050565b6000819050919050565b613e4083613e0b565b613e54613e4c82613e2d565b848454613db9565b825550505050565b600090565b613e69613e5c565b613e74818484613e37565b505050565b5b81811015613e9857613e8d600082613e61565b600181019050613e7a565b5050565b601f821115613edd57613eae81613d87565b613eb784613d9c565b81016020851015613ec6578190505b613eda613ed285613d9c565b830182613e79565b50505b505050565b600082821c905092915050565b6000613f0060001984600802613ee2565b1980831691505092915050565b6000613f198383613eef565b9150826002028217905092915050565b613f328261300f565b67ffffffffffffffff811115613f4b57613f4a61328f565b5b613f5582546136ba565b613f60828285613e9c565b600060209050601f831160018114613f935760008415613f81578287015190505b613f8b8582613f0d565b865550613ff3565b601f198416613fa186613d87565b60005b82811015613fc957848901518255600182019150602085019450602081019050613fa4565b86831015613fe65784890151613fe2601f891682613eef565b8355505b6001600288020188555050505b505050505050565b600061400682613c4c565b6140108185613871565b935061402081856020860161302b565b80840191505092915050565b60006140388284613ffb565b91508190509291505056fe68747470733a2f2f6372696d736f6e2d706561636566756c2d6d6f6f73652d3637352e6d7970696e6174612e636c6f75642f697066732f516d513946487a3635634348543951366a7465486d4c65595959566d346470757447564844674e413632696e7578a2646970667358221220690ff3863b90d8c1d3043acf77548a3fe53e4f30c2d9abb68fe3208d82aa349264736f6c63430008160033",
  "linkReferences": {},
  "deployedLinkReferences": {}
}